{
  "contractName": "Escrow",
  "abi": [
    {
      "inputs": [
        {
          "internalType": "address payable",
          "name": "_buyer",
          "type": "address"
        },
        {
          "internalType": "address payable",
          "name": "_seller",
          "type": "address"
        }
      ],
      "stateMutability": "nonpayable",
      "type": "constructor"
    },
    {
      "inputs": [],
      "name": "depositedAmount",
      "outputs": [
        {
          "internalType": "uint256",
          "name": "",
          "type": "uint256"
        }
      ],
      "stateMutability": "view",
      "type": "function",
      "constant": true
    },
    {
      "inputs": [],
      "name": "deposit",
      "outputs": [],
      "stateMutability": "payable",
      "type": "function",
      "payable": true
    },
    {
      "inputs": [],
      "name": "releaseFundsToSeller",
      "outputs": [],
      "stateMutability": "nonpayable",
      "type": "function"
    },
    {
      "inputs": [],
      "name": "refundBuyer",
      "outputs": [],
      "stateMutability": "nonpayable",
      "type": "function"
    },
    {
      "inputs": [],
      "name": "withdrawFunds",
      "outputs": [],
      "stateMutability": "nonpayable",
      "type": "function"
    }
  ],
  "bytecode": "0x60806040526000600460006101000a81548160ff02191690831515021790555034801561002b57600080fd5b506040516109ca3803806109ca8339818101604052604081101561004e57600080fd5b810190808051906020019092919080519060200190929190505050816000806101000a81548173ffffffffffffffffffffffffffffffffffffffff021916908373ffffffffffffffffffffffffffffffffffffffff16021790555080600160006101000a81548173ffffffffffffffffffffffffffffffffffffffff021916908373ffffffffffffffffffffffffffffffffffffffff16021790555033600260006101000a81548173ffffffffffffffffffffffffffffffffffffffff021916908373ffffffffffffffffffffffffffffffffffffffff160217905550505061088e8061013c6000396000f3fe60806040526004361061004a5760003560e01c80631d01364c1461004f57806324600fc31461007a578063d0e30db014610091578063d8797db01461009b578063e8a61cc8146100b2575b600080fd5b34801561005b57600080fd5b506100646100c9565b6040518082815260200191505060405180910390f35b34801561008657600080fd5b5061008f6100cf565b005b610099610332565b005b3480156100a757600080fd5b506100b061047c565b005b3480156100be57600080fd5b506100c761055b565b005b60035481565b600160009054906101000a900473ffffffffffffffffffffffffffffffffffffffff1673ffffffffffffffffffffffffffffffffffffffff163373ffffffffffffffffffffffffffffffffffffffff1614610192576040517f08c379a000000000000000000000000000000000000000000000000000000000815260040180806020018281038252600f8152602001807f4e6f74207468652073656c6c65722e000000000000000000000000000000000081525060200191505060405180910390fd5b60011515600460009054906101000a900460ff1615151461021b576040517f08c379a000000000000000000000000000000000000000000000000000000000815260040180806020018281038252601b8152602001807f46756e647320206d757374206265207472616e7366657261626c65000000000081525060200191505060405180910390fd5b600060646003548161022957fe5b04905060008160035403905060006003819055506000600460006101000a81548160ff021916908315150217905550600160009054906101000a900473ffffffffffffffffffffffffffffffffffffffff1673ffffffffffffffffffffffffffffffffffffffff166108fc829081150290604051600060405180830381858888f193505050501580156102c0573d6000803e3d6000fd5b50600260009054906101000a900473ffffffffffffffffffffffffffffffffffffffff1673ffffffffffffffffffffffffffffffffffffffff166108fc839081150290604051600060405180830381858888f19350505050158015610329573d6000803e3d6000fd5b50600091505050565b6000809054906101000a900473ffffffffffffffffffffffffffffffffffffffff1673ffffffffffffffffffffffffffffffffffffffff163373ffffffffffffffffffffffffffffffffffffffff16146103f4576040517f08c379a000000000000000000000000000000000000000000000000000000000815260040180806020018281038252600e8152602001807f4e6f74207468652062757965722e00000000000000000000000000000000000081525060200191505060405180910390fd5b60001515600460009054906101000a900460ff16151514610460576040517f08c379a00000000000000000000000000000000000000000000000000000000081526004018080602001828103825260308152602001806108296030913960400191505060405180910390fd5b6000349050806003600082825401925050819055506000905050565b6000809054906101000a900473ffffffffffffffffffffffffffffffffffffffff1673ffffffffffffffffffffffffffffffffffffffff163373ffffffffffffffffffffffffffffffffffffffff161461053e576040517f08c379a000000000000000000000000000000000000000000000000000000000815260040180806020018281038252600e8152602001807f4e6f74207468652062757965722e00000000000000000000000000000000000081525060200191505060405180910390fd5b6001600460006101000a81548160ff021916908315150217905550565b600260009054906101000a900473ffffffffffffffffffffffffffffffffffffffff1673ffffffffffffffffffffffffffffffffffffffff163373ffffffffffffffffffffffffffffffffffffffff1614806106045750600160009054906101000a900473ffffffffffffffffffffffffffffffffffffffff1673ffffffffffffffffffffffffffffffffffffffff163373ffffffffffffffffffffffffffffffffffffffff16145b610659576040517f08c379a00000000000000000000000000000000000000000000000000000000081526004018080602001828103825260218152602001806108086021913960400191505060405180910390fd5b60001515600460009054906101000a900460ff16151514801561067f5750600060035410155b6106f1576040517f08c379a00000000000000000000000000000000000000000000000000000000081526004018080602001828103825260078152602001807f496e76616c69640000000000000000000000000000000000000000000000000081525060200191505060405180910390fd5b60006064600354816106ff57fe5b0490506000816003540390506000600460006101000a81548160ff02191690831515021790555060006003819055506000809054906101000a900473ffffffffffffffffffffffffffffffffffffffff1673ffffffffffffffffffffffffffffffffffffffff166108fc829081150290604051600060405180830381858888f19350505050158015610795573d6000803e3d6000fd5b50600260009054906101000a900473ffffffffffffffffffffffffffffffffffffffff1673ffffffffffffffffffffffffffffffffffffffff166108fc839081150290604051600060405180830381858888f193505050501580156107fe573d6000803e3d6000fd5b5060009150505056fe4f6e6c792053656c6c657220616e64204167656e742063616e20526566756e642e4f6e6c79207768696c652066756e647320617265206c6f636b65642c206465706f73697420697320706f737369626c65a2646970667358221220bbd629e85df0f89a3db9f3a0ab6403ebabb1510bddcc19a127483ca6c2e837bd64736f6c63430006000033",
  "source": "// SPDX-License-Identifier: MIT\npragma solidity 0.6.0;\n\ncontract Escrow {\n\n    // Variable Declarations\n    address payable buyer;\n    address payable seller;\n    address payable agent;\n    uint256 public depositedAmount;\n    bool allowFundsTransfer = false;\n\n\n    // Modifiers\n    modifier onlyBuyer(){\n        require(msg.sender == buyer, \"Not the buyer.\");\n        _;\n    }\n\n    modifier onlySeller(){\n        require(msg.sender == seller, \"Not the seller.\");\n        _;\n    }\n\n    constructor(address payable _buyer, address payable _seller) public {\n        buyer = _buyer;\n        seller = _seller;\n        agent = msg.sender;\n    }\n\n    function deposit() payable public virtual onlyBuyer {\n        require(allowFundsTransfer == false, \"Only while funds are locked, deposit is possible\");\n        uint256 depositedValue = msg.value;\n        depositedAmount += depositedValue;\n\t    depositedValue = 0;\n    }\n\n    function releaseFundsToSeller() public virtual onlyBuyer {\n        allowFundsTransfer = true;\n    }\n\n    function refundBuyer() public virtual {\n        require(msg.sender == agent || msg.sender == seller, \"Only Seller and Agent can Refund.\");\n        require(allowFundsTransfer == false && depositedAmount >= 0, \"Invalid\");\n        uint256 escrowFee = depositedAmount / 100;\n        uint256 sendingAmount = depositedAmount - escrowFee;\n        allowFundsTransfer = false;\n        depositedAmount = 0;\n        buyer.transfer(sendingAmount);\n        agent.transfer(escrowFee);\n        escrowFee = 0;\n    }\n\n    function withdrawFunds() public virtual onlySeller {\n        require(allowFundsTransfer == true, \"Funds  must be transferable\");\n        uint256 escrowFee = depositedAmount / 100;\n        uint256 sendingAmount = depositedAmount - escrowFee;\n        depositedAmount = 0;\n        allowFundsTransfer = false;\n        seller.transfer(sendingAmount);\n        agent.transfer(escrowFee);\n        escrowFee = 0;\n\n    }\n}\n",
  "sourcePath": "/home/aarya/github/escrow-contract/contracts/Escrow.sol",
  "compiler": {
    "name": "solc",
    "version": "0.6.0+commit.26b70077.Emscripten.clang"
  },
  "schemaVersion": "3.3.0",
  "updatedAt": "2020-10-11T12:32:35.712Z",
  "networkType": "ethereum",
  "devdoc": {
    "methods": {}
  },
  "userdoc": {
    "methods": {}
  }
}